{
  "contractName": "MyContract",
  "abi": [
    {
      "inputs": [],
      "stateMutability": "nonpayable",
      "type": "constructor"
    },
    {
      "anonymous": false,
      "inputs": [
        {
          "indexed": true,
          "internalType": "address",
          "name": "from",
          "type": "address"
        },
        {
          "indexed": true,
          "internalType": "address",
          "name": "to",
          "type": "address"
        },
        {
          "indexed": false,
          "internalType": "uint256",
          "name": "value",
          "type": "uint256"
        }
      ],
      "name": "Transfer",
      "type": "event"
    },
    {
      "inputs": [
        {
          "internalType": "address",
          "name": "",
          "type": "address"
        }
      ],
      "name": "balances",
      "outputs": [
        {
          "internalType": "uint256",
          "name": "",
          "type": "uint256"
        }
      ],
      "stateMutability": "view",
      "type": "function",
      "constant": true
    },
    {
      "inputs": [
        {
          "internalType": "uint256",
          "name": "amount",
          "type": "uint256"
        }
      ],
      "name": "set",
      "outputs": [],
      "stateMutability": "nonpayable",
      "type": "function"
    },
    {
      "inputs": [
        {
          "internalType": "address",
          "name": "add",
          "type": "address"
        }
      ],
      "name": "get",
      "outputs": [
        {
          "internalType": "uint256",
          "name": "",
          "type": "uint256"
        }
      ],
      "stateMutability": "view",
      "type": "function",
      "constant": true
    },
    {
      "inputs": [
        {
          "internalType": "address",
          "name": "receiver",
          "type": "address"
        },
        {
          "internalType": "uint256",
          "name": "amount",
          "type": "uint256"
        }
      ],
      "name": "send",
      "outputs": [],
      "stateMutability": "nonpayable",
      "type": "function"
    }
  ],
  "bytecode": "0x608060405234801561001057600080fd5b50336000806101000a81548173ffffffffffffffffffffffffffffffffffffffff021916908373ffffffffffffffffffffffffffffffffffffffff1602179055506106ff806100606000396000f3fe608060405234801561001057600080fd5b506004361061004c5760003560e01c806327e235e31461005157806360fe47b114610081578063c2bc2efc1461009d578063d0679d34146100cd575b600080fd5b61006b6004803603810190610066919061042d565b6100e9565b6040516100789190610473565b60405180910390f35b61009b600480360381019061009691906104ba565b610101565b005b6100b760048036038101906100b2919061042d565b6101e8565b6040516100c49190610473565b60405180910390f35b6100e760048036038101906100e291906104e7565b610231565b005b60016020528060005260406000206000915090505481565b3373ffffffffffffffffffffffffffffffffffffffff1660008054906101000a900473ffffffffffffffffffffffffffffffffffffffff1673ffffffffffffffffffffffffffffffffffffffff161461018f576040517f08c379a000000000000000000000000000000000000000000000000000000000815260040161018690610584565b60405180910390fd5b80600160003373ffffffffffffffffffffffffffffffffffffffff1673ffffffffffffffffffffffffffffffffffffffff16815260200190815260200160002060008282546101de91906105d3565b9250508190555050565b6000600160008373ffffffffffffffffffffffffffffffffffffffff1673ffffffffffffffffffffffffffffffffffffffff168152602001908152602001600020549050919050565b8080600160003373ffffffffffffffffffffffffffffffffffffffff1673ffffffffffffffffffffffffffffffffffffffff1681526020019081526020016000205410156102b4576040517f08c379a00000000000000000000000000000000000000000000000000000000081526004016102ab90610675565b60405180910390fd5b81600160003373ffffffffffffffffffffffffffffffffffffffff1673ffffffffffffffffffffffffffffffffffffffff16815260200190815260200160002060008282546103039190610695565b9250508190555081600160008573ffffffffffffffffffffffffffffffffffffffff1673ffffffffffffffffffffffffffffffffffffffff168152602001908152602001600020600082825461035991906105d3565b925050819055508273ffffffffffffffffffffffffffffffffffffffff163373ffffffffffffffffffffffffffffffffffffffff167fddf252ad1be2c89b69c2b068fc378daa952ba7f163c4a11628f55a4df523b3ef846040516103bd9190610473565b60405180910390a3505050565b600080fd5b600073ffffffffffffffffffffffffffffffffffffffff82169050919050565b60006103fa826103cf565b9050919050565b61040a816103ef565b811461041557600080fd5b50565b60008135905061042781610401565b92915050565b600060208284031215610443576104426103ca565b5b600061045184828501610418565b91505092915050565b6000819050919050565b61046d8161045a565b82525050565b60006020820190506104886000830184610464565b92915050565b6104978161045a565b81146104a257600080fd5b50565b6000813590506104b48161048e565b92915050565b6000602082840312156104d0576104cf6103ca565b5b60006104de848285016104a5565b91505092915050565b600080604083850312156104fe576104fd6103ca565b5b600061050c85828601610418565b925050602061051d858286016104a5565b9150509250929050565b600082825260208201905092915050565b7f596f752068617665207065726d697373696f6e2073657475702062616c616365600082015250565b600061056e602083610527565b915061057982610538565b602082019050919050565b6000602082019050818103600083015261059d81610561565b9050919050565b7f4e487b7100000000000000000000000000000000000000000000000000000000600052601160045260246000fd5b60006105de8261045a565b91506105e98361045a565b9250827fffffffffffffffffffffffffffffffffffffffffffffffffffffffffffffffff0382111561061e5761061d6105a4565b5b828201905092915050565b7f596f7520646f6e2774206861766520656e6f7567682062616c616e6365000000600082015250565b600061065f601d83610527565b915061066a82610629565b602082019050919050565b6000602082019050818103600083015261068e81610652565b9050919050565b60006106a08261045a565b91506106ab8361045a565b9250828210156106be576106bd6105a4565b5b82820390509291505056fea2646970667358221220b56b6895bc3117ed9a8ba0dd5660e6e5636caa916d8084b440a97c3c19a527fe64736f6c634300080b0033",
  "immutableReferences": {},
  "source": "pragma solidity >=0.7.0 <0.9.0;\n\ncontract MyContract {\n    address private minter;\n    mapping(address => uint) public balances;\n    modifier checkMinter {\n        require(minter == msg.sender, 'You have permission setup balace');\n        _;\n    }\n    modifier checkBalance(uint amount) {\n        require(balances[msg.sender] >= amount, \"You don't have enough balance\");\n        _;\n    }\n    event Transfer(address indexed from, address indexed to, uint value);\n    constructor() {\n        minter = msg.sender;\n    }\n\n    function set(uint amount) public checkMinter{\n        balances[msg.sender] += amount;\n    }\n\n    function get(address add) public view returns (uint) {\n        return balances[add];\n    }\n\n    function send(address receiver, uint amount) public checkBalance(amount){\n        balances[msg.sender]-= amount;\n        balances[receiver]+= amount;\n        emit Transfer(msg.sender, receiver, amount);\n    }\n}",
  "sourcePath": "/media/binhminh/D/PC DATA/SmartContract/test-my-contract/contracts/MyContract.sol",
  "compiler": {
    "name": "solc",
    "version": "0.8.11+commit.d7f03943.Emscripten.clang"
  },
  "schemaVersion": "3.4.5",
  "updatedAt": "2022-02-27T17:33:45.495Z",
  "networkType": "ethereum",
  "devdoc": {
    "kind": "dev",
    "methods": {},
    "version": 1
  },
  "userdoc": {
    "kind": "user",
    "methods": {},
    "version": 1
  }
}